{
  "contractName": "NFT",
  "abi": [
    {
      "inputs": [],
      "stateMutability": "nonpayable",
      "type": "constructor"
    },
    {
      "inputs": [
        {
          "internalType": "address",
          "name": "",
          "type": "address"
        }
      ],
      "name": "nftList",
      "outputs": [
        {
          "internalType": "uint256",
          "name": "",
          "type": "uint256"
        }
      ],
      "stateMutability": "view",
      "type": "function",
      "constant": true
    },
    {
      "inputs": [],
      "name": "owner",
      "outputs": [
        {
          "internalType": "address",
          "name": "",
          "type": "address"
        }
      ],
      "stateMutability": "view",
      "type": "function",
      "constant": true
    },
    {
      "inputs": [],
      "name": "getSellingNFTMount",
      "outputs": [
        {
          "internalType": "uint256",
          "name": "",
          "type": "uint256"
        }
      ],
      "stateMutability": "view",
      "type": "function",
      "constant": true
    },
    {
      "inputs": [
        {
          "internalType": "uint256",
          "name": "amount",
          "type": "uint256"
        }
      ],
      "name": "addMount",
      "outputs": [],
      "stateMutability": "nonpayable",
      "type": "function"
    },
    {
      "inputs": [
        {
          "internalType": "uint256",
          "name": "amount",
          "type": "uint256"
        }
      ],
      "name": "mint",
      "outputs": [],
      "stateMutability": "payable",
      "type": "function",
      "payable": true
    }
  ],
  "bytecode": "0x608060405234801561001057600080fd5b50336000806101000a81548173ffffffffffffffffffffffffffffffffffffffff021916908373ffffffffffffffffffffffffffffffffffffffff1602179055506064600160003073ffffffffffffffffffffffffffffffffffffffff1673ffffffffffffffffffffffffffffffffffffffff168152602001908152602001600020819055506107fc806100a56000396000f3fe6080604052600436106100495760003560e01c8062b42df41461004e5780632a5fde401461007757806372ba6aae146100b45780638da5cb5b146100df578063a0712d681461010a575b600080fd5b34801561005a57600080fd5b5061007560048036038101906100709190610452565b610126565b005b34801561008357600080fd5b5061009e600480360381019061009991906104dd565b61020d565b6040516100ab9190610519565b60405180910390f35b3480156100c057600080fd5b506100c9610225565b6040516100d69190610519565b60405180910390f35b3480156100eb57600080fd5b506100f461026c565b6040516101019190610543565b60405180910390f35b610124600480360381019061011f9190610452565b610290565b005b60008054906101000a900473ffffffffffffffffffffffffffffffffffffffff1673ffffffffffffffffffffffffffffffffffffffff163373ffffffffffffffffffffffffffffffffffffffff16146101b4576040517f08c379a00000000000000000000000000000000000000000000000000000000081526004016101ab906105bb565b60405180910390fd5b80600160003073ffffffffffffffffffffffffffffffffffffffff1673ffffffffffffffffffffffffffffffffffffffff1681526020019081526020016000206000828254610203919061060a565b9250508190555050565b60016020528060005260406000206000915090505481565b6000600160003073ffffffffffffffffffffffffffffffffffffffff1673ffffffffffffffffffffffffffffffffffffffff16815260200190815260200160002054905090565b60008054906101000a900473ffffffffffffffffffffffffffffffffffffffff1681565b671bc16d674ec80000816102a49190610660565b3410156102e6576040517f08c379a00000000000000000000000000000000000000000000000000000000081526004016102dd90610706565b60405180910390fd5b80600160003073ffffffffffffffffffffffffffffffffffffffff1673ffffffffffffffffffffffffffffffffffffffff168152602001908152602001600020541015610368576040517f08c379a000000000000000000000000000000000000000000000000000000000815260040161035f90610772565b60405180910390fd5b80600160003073ffffffffffffffffffffffffffffffffffffffff1673ffffffffffffffffffffffffffffffffffffffff16815260200190815260200160002060008282546103b79190610792565b9250508190555080600160003373ffffffffffffffffffffffffffffffffffffffff1673ffffffffffffffffffffffffffffffffffffffff168152602001908152602001600020600082825461040d919061060a565b9250508190555050565b600080fd5b6000819050919050565b61042f8161041c565b811461043a57600080fd5b50565b60008135905061044c81610426565b92915050565b60006020828403121561046857610467610417565b5b60006104768482850161043d565b91505092915050565b600073ffffffffffffffffffffffffffffffffffffffff82169050919050565b60006104aa8261047f565b9050919050565b6104ba8161049f565b81146104c557600080fd5b50565b6000813590506104d7816104b1565b92915050565b6000602082840312156104f3576104f2610417565b5b6000610501848285016104c8565b91505092915050565b6105138161041c565b82525050565b600060208201905061052e600083018461050a565b92915050565b61053d8161049f565b82525050565b60006020820190506105586000830184610534565b92915050565b600082825260208201905092915050565b7f4f6e6c7920746865206f776e65722063616e20616464206d6f756e7400000000600082015250565b60006105a5601c8361055e565b91506105b08261056f565b602082019050919050565b600060208201905081810360008301526105d481610598565b9050919050565b7f4e487b7100000000000000000000000000000000000000000000000000000000600052601160045260246000fd5b60006106158261041c565b91506106208361041c565b9250827fffffffffffffffffffffffffffffffffffffffffffffffffffffffffffffffff03821115610655576106546105db565b5b828201905092915050565b600061066b8261041c565b91506106768361041c565b9250817fffffffffffffffffffffffffffffffffffffffffffffffffffffffffffffffff04831182151516156106af576106ae6105db565b5b828202905092915050565b7f596f75206d757374206861766520322065746800000000000000000000000000600082015250565b60006106f060138361055e565b91506106fb826106ba565b602082019050919050565b6000602082019050818103600083015261071f816106e3565b9050919050565b7f596f752063616e74202e2e2e2065727200000000000000000000000000000000600082015250565b600061075c60108361055e565b915061076782610726565b602082019050919050565b6000602082019050818103600083015261078b8161074f565b9050919050565b600061079d8261041c565b91506107a88361041c565b9250828210156107bb576107ba6105db565b5b82820390509291505056fea26469706673582212205ab4b9c3d1592860c61b339dca31e012ca7bc4a934506ab4335b873cb098dddc64736f6c634300080e0033",
  "immutableReferences": {},
  "source": "// SPDX-License-Identifier: MIT\r\npragma solidity ^0.8.11;\r\n\r\ncontract NFT {\r\n\r\n    // state variables\r\n    address public owner;\r\n    mapping (address => uint) public nftList;\r\n\r\n    // set the owner as th address that deployed the contract\r\n    // set the initial vending machine balance to 100\r\n    constructor() {\r\n        owner = msg.sender;\r\n        nftList[address(this)] = 100;\r\n    }\r\n\r\n    function getSellingNFTMount() public view returns (uint) {\r\n        return nftList[address(this)];\r\n    }\r\n\r\n    // Let the owner restock the vending machine\r\n    function addMount(uint amount) public {\r\n        require(msg.sender == owner, \"Only the owner can add mount\");\r\n        nftList[address(this)] += amount;\r\n    }\r\n\r\n    // Purchase donuts from the vending machine\r\n    function mint(uint amount) public payable {\r\n        require(msg.value >= amount * 2 ether, \"You must have 2 eth\");\r\n        require(nftList[address(this)] >= amount, \"You cant ... err\");\r\n        nftList[address(this)] -= amount;\r\n        nftList[msg.sender] += amount;\r\n    }\r\n}",
  "sourcePath": "C:\\Users\\SofianeLIANI\\Desktop\\ISITECH\\2022\\BLOCKCHAIN\\app-web3\\truffle\\contracts\\NFT.sol",
  "compiler": {
    "name": "solc",
    "version": "0.8.14+commit.80d49f37.Emscripten.clang"
  },
  "schemaVersion": "3.4.7",
  "updatedAt": "2022-06-05T11:10:08.990Z",
  "networkType": "ethereum",
  "devdoc": {
    "kind": "dev",
    "methods": {},
    "version": 1
  },
  "userdoc": {
    "kind": "user",
    "methods": {},
    "version": 1
  }
}